:400000000080002011000000A1040000A104000008B5044B1A6803F53F5302331A6000F047FA00BFFA46004010B5054C237833B9044B13B10448AFF300800123237010BDEC
:400040004881FF1F00000000F0190000084B10B51BB108490848AFF300800848036803B910BD074B002BFBD0BDE81040184700BF000000004C81FF1FF0190000C880FF1FF0
:40008000000000000122014B1A7070476481FF1FF8B562B600F0F8FA00F0A4FD00F0B6FD4D4800F0BFFB00274C4B1B78012B08D13FB14FF400714A4800F032FB0027474B11
:4000C0001F70464B1B78012B0ED109E0002000F0A5FD00F0BBFD424B23F81400013400E00024FF2CF2DD012700F090FD002000F095FD00F0ABFD80B201F074F80022394BFC
:4001000001F0D6F801F06EFB064601F07DF804460D462DA3D3E9002301F03CFB98B1012000F05AFB4FF47A7000F01EFA002000F053FB4FF47A7000F017FA002000F040FBC5
:40014000002000F0DFFE20A3D3E900232046294601F034FB68B12449304601F0E1FB40B1012000F039FB002000F02AFB002000F0C9FE1D49304601F0E7FB80B114A3D3E99D
:4001800000232046294601F005FB40B1002000F023FB002000F014FB012000F0B3FE0CA3D3E900232046294601F008FB40B1002000F012FB012000F003FB002000F0A2FE32
:4001C000012000F0D1F96FE7285C8FC2F528DC3FB81E85EB51381240850000006481FF1F7C81FF1F0000143F00002040FEE700BFF0B40022174611E050F82760F3B226F008
:40020000FF0608E001EB420511F812406D78A5550132013BDBB2002BF4D101371A2FEBD9F0BC70470A4B1B78DBB203F00701094A11701B09013213702022074B1A70022270
:4002400003F603131A704422A3F28A231A707047CF0100496E580040FD51004008B50A46002101F0BCFB08BD08B501F0ADFB08BD38B500242E4B1C80502202331A70192504
:4002800002331D80182202331A70042229492A48FFF7EAFF0622294B1A705222A3F580731A70274B1B78DBB2264A13704FF4E162254B1A8041F25122023B1A800CE0234BEF
:4002C0001B7803F0010343EA440404F003044FF4F07000F025FE013D0DB1032CEFD115B90320FFF783FF1A4A4FF48073138007231370002317490B7048200231087013708C
:40030000053213700222144B1A7004220A331A70124A137843F003031370013A137843F001031370013A137843F08003137038BD80400040000400480041004000430040A2
:400340000F010049A14600402242004025420040044000400640004001400040A2430040012807D8044B53F820201844017A13780B431370704700BFF4190000012808D861
:40038000044B53F820201844017A137823EA010313707047F419000038B572B62E4A137843F00403137000240BE02C4863001A19510001440A46098AD068FFF74FFF013491
:4003C000E4B2062CF1D926494FF09040FFF710FF0A22244B1A7024490B7843F002030B7010310B7843F002030B70204C237843F040032370A1F5863151390B7843F01003F9
:400400000B701B491B48FFF72FFF08221A491B48FFF72AFF08221A491A48FFF725FF082219491A48FFF720FF194A137843F008031370184D61232B70FFF71AFF81232B70BA
:400440000122154B1A70FFF7EDFE0E2221461348FFF70AFF38BD00BFE8460040F41900006C0000488358004003500140A0430040DC030048C0510040E8030048F2510040BA
:40048000F003004812510040F803004822510040224300400048004004000840B043004008B501F065FA03680C2B00D1FEE7FEE708B5104E104D16E029686B68AC6800226A
:4004C00004E051F8040B43F8040B0432A242F8D1E868002203E0002143F8041B04328242F9D11035013E002EE6D101F047FAFFF7CFFDFEE701000000501A000008B5104A3B
:40050000104B1A60104A136843F40073136000230AE0032B03D80D4A52F8231000E00C490C4A42F8231001332F2BF2D90A4B1A780A4B1A70074A0A4B1A60FFF72DFF08BDEC
:400540000004FA050CED00E014ED00E000000000A10400000080FF1FBC760040C080FF1F08ED00E001BE704710B5044605E0084B186800F0D5FCA4F50044B4F5004FF6D835
:40058000034B586800FB04F000F0CAFC10BD00BFCC80FF1F08B5034B1B7A00FB03F000F0BFFC08BDCC80FF1F70B504460E46074B1D681F2802D90020FFF7D4FF04F01F046E
:4005C000103455F8240045F8246070BD08ED00E038B504460D46072902D90020FFF7C2FF1F2C02D90020FFF7BDFF04F01F0000F1604000F564406D01EDB2057038BD00BFAC
:4006000008B572220B4B1A70202203331A700A490120FFF7C9FF07210120FFF7D9FF0622064B1A70472210331A7002224F331A7008BD00BF88650040490700002964004007
:4006400010B500F075FC04460D4A137843F0200313700332137843F010031370A2F20312137843F0100313700223064A1360A2F5C072136000F096F8204600F05DFC10BDAB
:400680009865004080E200E008B5054B1B7823B9FFF7B6FF0122024B1A70FFF7D1FF08BD6681FF1F10B4194B99885B889BB2994205D25A1E914214BF0022012206E0CA1AB2
:4006C00040F2FF74A24214BF00220122002AEAD1994207D10E4B1B7813F0040F02D10D4B187010E0B1F5006F00D300210A4B58540131064B9980064B1B7813F0020F02D0AC
:400700000222064B1A6010BC704700BF6681FF1F68640040486400407C83FF1F00E200E0084B1B7833B97047305DFFF7BBFF0134A4B203E070B50D4606460024AC42F3D3DC
:4007400070BD00BF6681FF1F15E0114B1B889BB2B3F5006F02D300220D4B1A800C4A13889BB20C49CB5CDBB20B490B7013889BB201339BB21380064B1B889BB2074A128809
:40078000934204D0064B1B7813F0040FDDD070476881FF1F7C83FF1F486400406A81FF1F68640040054A137843F0020313701032137843F002031370704700BFA243004055
:4007C000044A137803F0FD03400000F0020018431070704720510040044A137803F07F03C001C0B218431070704700BF10510040014B1B681864704708ED00E04001C0B2BB
:40080000014B1870704700BF00E400E00122014B1A60704700E100E00122014B1A60704780E100E010B50446FFF7F6FF2046FFF7DFFF0720FFF7E2FFFFF7E8FF10BD00BFCD
:4008400010B59DF80840012C51D1013809282ED8DFE800F0052D2D052D2D0F192D230F2B03D92548007840B222E02448007840B21EE00F2B03D92248007840B218E021481C
:40088000007840B214E00F2B03D91F48007840B20EE01E48007840B20AE00F2B03D91C48007840B204E01B48007840B200E0002001EB401101FB02F1C90B8AB20D2B0BD85F
:4008C000C3F10E0289B211418AB2611E124800EB810101338B7005E0631E0F4901EB83030F219970013C0C4B23F8242010BD0020FFF738FE10BD00BF180100491C0100492D
:40090000190100491D0100491A0100491E0100491B0100491F0100497081FF1FF8B5074600F006FB06460D4D2B7843F003032B700B4C237843F0030323700A4B1F70032077
:40094000FFF728FE2B7803F0FC032B70237803F0FC032370304600F0EFFAF8BDF8460040F9460040925800400022324B1A7101285FD170B53822304B1A70042202331A70F4
:40098000062201331A70002401331C7001331C703F2201331A7002331C7001331C7001331C7001250A331D70502203F527631A700A2201331A702C2201331A7001331C7029
:4009C000442203331A70482201331A7001331D7002331D70112201331A70192201331A70972201331A705220FFF798FF5822134B1A7001331C70052605331E70022201335B
:400A00001A7001331C7001331C70204600F066F943F233320A4B1A602946304600F082F92946252000F002FA06491D20FFF7BCFD70BD70477081FF1F004E004094580040B6
:400A40007C8BFF1FB90C0000F0B583B0284D01272F70284E00247471102000F051F9102000F0D2F907211D20FFF7B2FD0422224B1A7001331C7007331C70204A137843F0CF
:400A8000180313701E4B1C7003F2F5231C7001331C700A22A3F209331A7001331C7002331C705B2205331A705E2201331A7004331C701422A3F68C231A70009710234FF4ED
:400AC000004248F6F0510220FFF7BAFE2B78013B06EB83039A780B4B1A702B78013B36F82320094B1A802878FFF73EFF03B0F0BDDC80FF1F7081FF1F96580040075B004053
:400B0000935800400E4E00400C4E004070B500F00FFA06462A4B1B782A4B1A7842F001021A701A7842F010021A7010331A7842F001021A701A7842F010021A70224D2B78B6
:400B400043F002032B70214C237843F0020323701F4A137843F0030313700320FFF71AFD2B7803F0FD032B70237803F0FD032370184A137843F0060313707A22164B1A706A
:400B8000164A137843F0010313701032137843F0010313700F3A137843F0010313701032137843F0010313704FF000530C4A1360A2F5C0721360304600F0BEF970BD00BF54
:400BC000DC80FF1FAA430040F8460040F9460040915800407758004082580040A143004080E200E008B5084B9B794BB9064BDB7913F0FF0F01D1FFF727FF0122024B9A7152
:400C0000FFF784FF08BD00BF7081FF1F024A137843F0010313707047004E0040094B1B7913F0FF0F03D0074B5B79DBB203E0064B1B7803F00103012B01D00028EED0184654
:400C4000704700BF7081FF1F014E0040154B1B7803F00303012B07D8134B1888023B1B889BB243EA004013E0022B0AD10E4B1888023B1B7843EA00430C4A107843EA002072
:400C800006E00B4B188883B2074A108843EA0040084B1B7913F0FF0F02D00022054B5A71704700BF144E0040124E0040114E0040104E00407081FF1F704700BF10B5002463
:400CC00004E02046FFF75AFB0134E4B2012CF8D9FF22014B1A7010BDDD80FF1F10B50446FFF7ECFF2046FFF73BFB014B1C7010BDDD80FF1F014B188880B2704780400040E0
:400D0000034B1A7800F0F80010431870704700BF82400040024B187800F00700704700BF8240004070B505460E46FFF7F3FF0446FFF7E0FFA84256D02B4B1B7803F0010272
:400D400094B900B185B938B9284B1D80284A137803F0BF03137070BD254A137843F040031370224B1D8070BD22B3002321490B7001240F310C7004310B700C390B7803F081
:400D80007F030B701A4B1B7813F0080F00D08DB9194B18800721013B1970164B1B7813F0010FFAD110490B7803F0FE030B700021104B19700C4B1B7813F0010F0DD00E4BD0
:400DC0001D800EB1032200E001220A4B1A70094B1B7813F0010FFAD170BD044B1D8002490B7813430B7070BDA243004080400040824000400140004002400040014B1888D0
:400E000080B2704700410040034B1A7800F0F80010431870704700BF02410040024B187800F00700704700BF0241004070B505460E46FFF7F3FF0446FFF7E0FFA84256D004
:400E40002B4B1B7803F0010294B900B185B938B9284B1D80284A137803F0BF03137070BD254A137843F040031370224B1D8070BD22B3002321490B70012413310C700439AB
:400E80000B7008390B7803F07F030B701A4B1B7813F0080F00D08DB9194B18800721013B1970164B1B7813F0010FFAD110490B7803F0FE030B700021104B19700C4B1B78E6
:400EC00013F0010F0DD00E4B1D800EB1032200E001220A4B1A70094B1B7813F0010FFAD170BD044B1D8002490B7813430B7070BDA1430040004100400241004001400040F3
:400F000002400040044A137803F0FE0300F0010018431070704700BF20510040000000000230800803D000BF01380046FCD17047EFF3108072B6704780F31088704700BF4E
:400F400081F0004102E000BF83F0004330B54FEA41044FEA430594EA050F08BF90EA020F1FBF54EA000C55EA020C7FEA645C7FEA655C00F0E2804FEA5454D4EB5555B8BFC5
:400F80006D420CDD2C4480EA020281EA030382EA000083EA010180EA020281EA0303362D88BF30BD11F0004F4FEA01314FF4801C4CEA113102D0404261EB410113F0004FB3
:400FC0004FEA03334CEA133302D0524263EB430394EA050F00F0A780A4F10104D5F1200E0DDB02FA0EFC22FA05F2801841F1000103FA0EF2801843FA05F359410EE0A5F121
:4010000020050EF1200E012A03FA0EFC28BF4CF0020C43FA05F3C01851EBE37101F0004507D54FF0000EDCF1000C7EEB00006EEB0101B1F5801F1BD3B1F5001F0CD349083A
:401040005FEA30004FEA3C0C04F101044FEA445212F5800F80F09A80BCF1004F08BF5FEA500C50F1000041EB045141EA050130BD5FEA4C0C404141EB010111F4801FA4F1BC
:401080000104E9D191F0000F04BF01460020B1FA81F308BF2033A3F10B03B3F120020CDA0C3208DD02F1140CC2F10C0201FA0CF021FA02F10CE002F11402D8BFC2F1200CC9
:4010C00001FA02F120FA0CFCDCBF41EA0C019040E41AA2BF01EB0451294330BD6FEA04041F3C1CDA0C340EDC04F11404C4F1200220FA04F001FA02F340EA030021FA04F347
:4011000045EA030130BDC4F10C04C4F1200220FA02F001FA04F340EA0300294630BD21FA04F0294630BD94F0000F83F4801306BF81F480110134013D4EE77FEA645C18BFF1
:401140007FEA655C29D094EA050F08BF90EA020F05D054EA000C04BF1946104630BD91EA030F1EBF0021002030BD5FEA545C05D14000494128BF41F0004130BD14F58004E0
:401180003CBF01F5801130BD01F0004545F0FE4141F470014FF0000030BD7FEA645C1ABF194610467FEA655C1CBF0B46024650EA013406BF52EA033591EA030F41F4002164
:4011C00030BD00BF90F0000F04BF0021704730B54FF4806404F132044FF000054FF0000150E700BF90F0000F04BF0021704730B54FF4806404F1320410F0004548BF404239
:401200004FF000013EE700BF42004FEAE2014FEA31014FEA02701FBF12F07F4393F07F4F81F06051704792F0000F14BF93F07F4F704730B54FF4607401F0004521F000415A
:4012400020E700BF50EA010208BF704730B54FF000050AE050EA010208BF704730B511F0004502D5404261EB41014FF4806404F132045FEA915C3FF4DCAE4FF003025FEA3B
:40128000DC0C18BF03325FEADC0C18BF033202EBDC02C2F1200300FA03FC20FA02F001FA03FE40EA0E0021FA02F11444C1E600BF70B54FF0FF0C4CF4E06C1CEA11541DBF15
:4012C0001CEA135594EA0C0F95EA0C0F00F0DEF82C4481EA030621EA4C5123EA4C5350EA013518BF52EA033541F4801143F4801338D0A0FB02CE4FF00005E1FB02E506F094
:401300000042E0FB03E54FF00006E1FB03569CF0000F18BF4EF0010EA4F1FF04B6F5007F64F5407404D25FEA4E0E6D4146EB060642EAC62141EA55514FEAC52040EA5E5060
:401340004FEACE2EB4F1FD0C88BFBCF5E06F1ED8BEF1004F08BF5FEA500E50F1000041EB045170BD06F0004646EA010140EA020081EA0301B4EB5C04C2BFD4EB0C0541EA6E
:40138000045170BD41F480114FF0000E013C00F3AB8014F1360FDEBF002001F0004170BDC4F10004203C35DA0C341BDC04F11404C4F1200500FA05F320FA04F001FA05F2A3
:4013C00040EA020001F0004221F0004110EBD37021FA04F642EB06015EEA430E08BF20EAD37070BDC4F10C04C4F1200500FA04F320FA05F001FA04F240EA020001F00041ED
:4014000010EBD37041F100015EEA430E08BF20EAD37070BDC4F1200500FA05F24EEA020E20FA04F301FA05F243EA020321FA04F001F0004121FA04F220EA020000EBD3708D
:401440005EEA430E08BF20EAD37070BD94F0000F0FD101F00046400041EB010111F4801F08BF013CF7D041EA060195F0000F18BF704703F00046520043EB030313F4801F52
:4014800008BF013DF7D043EA0603704794EA0C0F0CEA135518BF95EA0C0F0CD050EA410618BF52EA4306D1D181EA030101F000414FF0000070BD50EA410606BF10461946A8
:4014C00052EA430619D094EA0C0F02D150EA013613D195EA0C0F05D152EA03361CBF104619460AD181EA030101F0004141F0FE4141F470014FF0000070BD41F0FE4141F4A5
:40150000780170BD70B54FF0FF0C4CF4E06C1CEA11541DBF1CEA135594EA0C0F95EA0C0F00F0A7F8A4EB050481EA030E52EA03354FEA013100F088804FEA03334FF0805525
:4015400045EA131343EA12634FEA022245EA111545EA10654FEA00260EF000419D4208BF964244F1FD0404F5407402D25B084FEA3202B61A65EB03055B084FEA32024FF440
:4015800080104FF4002CB6EB020E75EB030E22BFB61A754640EA0C005B084FEA3202B6EB020E75EB030E22BFB61A754640EA5C005B084FEA3202B6EB020E75EB030E22BFB1
:4015C000B61A754640EA9C005B084FEA3202B6EB020E75EB030E22BFB61A754640EADC0055EA060E18D04FEA051545EA16754FEA06164FEAC30343EA52734FEAC2025FEA62
:401600001C1CC0D111F4801F0BD141EA00014FF000004FF0004CB6E711F4801F04BF01430020B4F1FD0C88BFBCF5E06F3FF6AFAEB5EB030C04BFB6EB020C5FEA500C50F175
:40164000000041EB045170BD0EF0004E4EEA113114EB5C04C2BFD4EB0C0541EA045170BD41F480114FF0000E013C90E645EA060E8DE60CEA135594EA0C0F08BF95EA0C0FC5
:401680003FF43BAF94EA0C0F0AD150EA01347FF434AF95EA0C0F7FF425AF104619462CE795EA0C0F06D152EA03353FF4FDAE1046194622E750EA410618BF52EA43067FF45A
:4016C000C5AE50EA41047FF40DAF52EA43057FF4EBAE12E74FF0FF3C06E000BF4FF0010C02E000BF4FF0010C4DF804CD4FEA410C7FEA6C5C4FEA430C18BF7FEA6C5C1BD0A0
:4017000001B050EA410C0CBF52EA430C91EA030F02BF90EA020F0020704710F1000F91EA030F58BF994208BF90422CBFD8176FEAE37040F0010070474FEA410C7FEA6C5C1E
:4017400002D150EA013C07D14FEA430C7FEA6C5CD6D152EA033CD3D05DF8040B704700BF8446104662468C461946634600E000BF01B5FFF7B7FF002848BF10F1000F01BD4F
:401780004DF808EDFFF7F4FF0CBF012000205DF808FB00BF4DF808EDFFF7EAFF34BF012000205DF808FB00BF4DF808EDFFF7E0FF94BF012000205DF808FB00BF4DF808ED8B
:4017C000FFF7CEFF94BF012000205DF808FB00BF4DF808EDFFF7C4FF34BF012000205DF808FB00BF4FEA4102B2F1E04324BFB3F5001CDCF1FE5C0DD901F0004C4FEAC0020F
:401800004CEA5070B2F1004F40EB830008BF20F00100704711F0804F21D113F13872BCBF01F00040704741F480114FEA5252C2F11802C2F1200C10FA0CF320FA02F018BF75
:4018400040F001004FEAC1234FEAD32303FA0CFC40EA0C0023FA02F34FEA4303CCE77FEA625307D150EA01331EBF4FF0FE4040F44000704701F0004040F0FE4040F40000B0
:40188000704700BF4FF0FF3C06E000BF4FF0010C02E000BF4FF0010C4DF804CD4FEA40024FEA41037FEA226C18BF7FEA236C11D001B052EA530C18BF90EA010F58BFB2EB44
:4018C000030088BFC81738BF6FEAE17018BF40F0010070477FEA226C02D15FEA402C05D17FEA236CE4D15FEA412CE1D05DF8040B704700BF844608466146FFE70FB5FFF7BD
:40190000C9FF002848BF10F1000F0FBD4DF808EDFFF7F4FF0CBF012000205DF808FB00BF4DF808EDFFF7EAFF34BF012000205DF808FB00BF4DF808EDFFF7E0FF94BF0120A7
:4019400000205DF808FB00BF4DF808EDFFF7D2FF94BF012000205DF808FB00BF4DF808EDFFF7C8FF34BF012000205DF808FB00BF014B1868704700BF4081FF1F0E4B70B5A3
:401980001E460E4C0025E41AA410A54204D056F8253098470135F8E700F048F8084B094C1E46E41AA4100025A54204D056F8253098470135F8E770BD381A0000381A00000A
:4019C000381A0000401A000010B5431E0A44914204D011F8014B03F8014FF8E710BD03460244934202D003F8011BFAE77047000000000000035B004024430040400000006A
:401A000000510040100030510040400000000140001000140140000800400140000A004C014000020050014020004300F8B500BFF8BC08BC9E4670474D000000FD0400007B
:401A4000F8B500BFF8BC08BC9E46704729000000601A0000C880FF1F80000000380A0000000000000000E02EC05D00001800000000366E0101FF0000000000000000000034
:401A80000000000000000000000000000000000000000000000000002A1A0000000000000000000000000000000000000000000000000000000000000000000000000000E2
:401AC000000000000000000000000000000000000000000000000000E080FF1F00000000000000000000000000000000000000000000000000000000000000000000000068
:401B000000000000000000000000000000000000000000000000000000000000000000000000000000000000000000000000000000000000000000000000000000000000A5
:401B40000000000000000000000000000000000000000000000000000000000000000000000000000000000000000000000000000000000000000000000000000000000065
:401B80000000000000000000000000000000000000000000000000000000000000000000000000000000000000000000000000000000000000000000000000000000000025
:401BC00000000000000000000000000000000000000000000000000000000000000000000000000000000000000000000000000000000000000000000000000000000000E5
:020000040003F7
:0200000480007A
:40000000025200400164004002650040010701406108014037090140040A0140010B014002150140461801402F1901403B1A01403B1B014003400140014101400142014098
:4000400003430140024401400145014003460140034701400348014004490140014C01400A4D0140045001400151014061806440880F88728B38E6020013020406150C135A
:400080000E0C100A1101121418031A141D012208250429022F0130103504360F370339803A803E013F1040464101450C46E0470B481949FF4AFF4BFF4EF04F44500C540177
:4000C0005604580459045A045B045C115D115F0166C06A406B02801082AC860387138B088C0C8E7190DC912C92229303941096409F0CA009A131A2D0A30EA414AA20AD3117
:40010000AF06B0E0B10FB330B41FB908BA02BB02BF04C003C640C9FFCA07CBFFCC40CD20CEF0CF05D008D804D904DA04DC11DD01DF01E040E1A8E240E32000040241040815
:400140000541082009020B240D020F041008110812801701180419211D401E4021062680270929412A412C082F22310232803302354138083B20410446414C044F04500C7C
:400180005310550457205C205D025E405F0867408740B502C0BDC25CC41ECA79CC99CE06D092D220D6F0D880B802BE01D804DF011D02E608EC1001040421050206460906D2
:4001C0000C400EA80F08130815061701188219011A451B061F0124F3250728F32C102D0730E0310732103403360C37083E403F40402341044205440146EC480C49FF4AFFEC
:400200004BFF4C624DA04EF04F41500C56025711580459045A045B045C115D115F016640670269106A306B106D106E106F12910195019901A501B301BB02BF04D904DC10C0
:40024000DF01044005080C100E041540164017151C401D881E0421022310260327012B202C012F203001312632203440350436213E2A3F8045AA4E02561057405F106D405A
:400280006F147580762A8D489920B102B320C0A0C240C4E0CA52CCF7CEF0D0F0D210D6200B02130215011B0121012701290431013304350239023F1459045C105F01810232
:4002C000820183018419850886E2880889188CC08D06904194E7951E9618988099049EE69F06A010A11EA418A518A706A819A906AAE4AB18ACFFAD10B238B41FB51EB6C006
:40030000B701BA28BB20D418D604D804D904DB04DC11DD10DF010442050406080C5A0D400E20140116A217101D041E011F2020102102230424022520261029242A022C08B7
:400340002D802E822F20300831023330345035043A103C423E285E01650266406704801085028803890890409180981199A09A789C409D0CA520A720C0F0C2F0C4F0CAF751
:40038000CC77CEF4D680D8B0E401EC1030403410CC309C509C5084109C50E6407C01DE01940145089401D001A508B401EC0825109C40C82084409C40B510E610A50810C080
:4003C0007004800488C0B508C408DC01E201E601EC0800020C0210021C02000F8000408080008000000000000000000000002000008B8B00000000000003030000000000CE
:40040000250018010000000000000000000000000000000000000000000000000000000000000000000000000000000000000000000000000000000000000000000000007E
:40044000000000000000000000000000000000000000000000000000000000000000000000000000000000000000000000000000000000000000000000000000000000007C
:40048000000000000000000000000000000000000000000000000000000000000000000000000000000000000000000000000000000000000000000000000000000000003C
:4004C00000000000000000000000000000000000000000000000000000000000000000000000000000000000000000000000000000000000000000000000000000000000FC
:4005000000000000000000000000000000000000000000000000000000000000000000000000000000000000000000000000000000000000000000000000000000000000BB
:0200000490006A
:0400000000004005B7
:0200000490105A
:04000000BC90ACAF55
:0200000490303A
:02000000FA9371
:0200000490402A
:4000000000000000000000000000000000000000000000000000000000000000000000000000000000000000000000000000000000000000000000000000000000000000C0
:400040000000000000000000000000000000000000000000000000000000000000000000000000000000000000000000000000000000000000000000000000000000000080
:400080000000000000000000000000000000000000000000000000000000000000000000000000000000000000000000000000000000000000000000000000000000000040
:4000C0000000000000000000000000000000000000000000000000000000000000000000000000000000000000000000000000000000000000000000000000000000000000
:0200000490501A
:0C00000000012E16106900012E210AFCE0
:00000001FF