:400000000080002011000000F9030000F903000008B5044B1A6803F53F5302331A6000F0F3F900BFFA46004010B5054C237833B9044B13B10448AFF300800123237010BD93
:400040005081FF1F00000000B0120000084B10B51BB108490848AFF300800848036803B910BD074B002BFBD0BDE81040184700BF000000005481FF1FB0120000C880FF1F6E
:40008000000000000122014B1A7070476C81FF1F10B562B600F072FB01F008F800F004FE00F016FE174800F01FFC0024164B1B78012B08D13CB14FF40071144800F0AAFB4B
:4000C0000024114B1C70104B1B78012B0ED109E0002000F005FE00F01BFE0C4B23F81400013400E00024FF2CF2DD012400F0F0FD002000F0F5FD00F00BFE012000F0AEFA87
:40010000D4E700BF850000006C81FF1F8C81FF1FFEE700BFF0B40022174611E050F82760F3B226F0FF0608E001EB420511F812406D78A5550132013BDBB2002BF4D10137CA
:40014000172FEBD9F0BC7047094B1B78DBB203F00701084A11701B0901321370102302F221221370703213704422034B1A707047CF0100496E5800407658004008B50A46B5
:40018000002101F08CF808BD08B501F07DF808BD38B50024314B1C80502202331A70192502331D8018232E4A137040F65F11023211800232137004222A492B48FFF7E4FF55
:4001C00006222A4B1A705222A3F580731A70284B1B78DBB2274A13704FF4E162264B1A8041F25122023B1A800CE0244B1B7803F0010343EA440404F003044FF4F07001F0D1
:4002000007F8013D0DB1032CEFD115B90320FFF77FFF1B4A4FF48073138007231370002318490B704820023108701370053213700222154B1A7004220A331A70134A137862
:4002400043F007031370013A137843F001031370013A137843F08003137038BD80400040864000409803004800410040004300400F010049A1460040224200402542004092
:40028000044000400640004001400040A2430040012807D8044B53F820201844017A13780B431370704700BFB4120000012808D8044B53F820201844017A137823EA0103E7
:4002C00013707047B412000038B572B6384A137843F00403137000240BE0364863001A19510001440A46098AD068FFF747FF0134E4B2082CF1D900240CE02E48A2001119F4
:400300004B000344B3F84C20996C586CFFF73CFF0134E4B2012CF0D927494FF09040FFF7F9FE0A25254B1D7004212548FFF726FF04212448FFF722FF234A137843F002033C
:4003400013701032137843F0020313701F4C237843F040032370A2F58632513A137843F0100313702A461A491A48FFF70DFF082219491A48FFF708FF082219491948FFF730
:4003800003FF194A137843F008031370174D61232B70FFF7FDFE81232B700122144B1A70FFF7D2FE0E2221461248FFF7EDFE38BDE8460040B4120000600000488358004049
:4003C000007600400876004003500140A04300407C030048C051004088030048125100409003004822510040224300400048004004000840B043004008B500F019FF0368DA
:400400000C2B00D1FEE7FEE708B5104E104D16E029686B68AC68002204E051F8040B43F8040B0432A242F8D1E868002203E0002143F8041B04328242F9D11035013E002E33
:40044000E6D100F0FBFEFFF723FEFEE701000000FC13000008B5114A114B1A60114A136843F40073136000230AE0032B03D80E4A52F8231000E00D490D4A42F823100133D6
:400480002F2BF2D90B4B1A780B4B1A70084A0B4B1A60FFF719FF00F013F808BD0004FA050CED00E014ED00E000000000F90300000080FF1FBC760040C080FF1F08ED00E063
:4004C0000B4A7F2313708021517007E0DA0002F1804202F5F042013BDBB21370002BF5D1DB0003F1804303F5F04300221A707047CC80FF1F172815D831B103010A495A5C9F
:4005000042F020025A5405E0030107495A5C02F0DF025A540001044A835C43F00103835400207047012070471070004017280BD80001064A835C03F0F103490001F00E011C
:400540001943815400207047012070471070004041F6FF73994201D14FF4005141F6FF739A4201D14FF40052172808D8C00000F1804000F5EC408180C28000207047012019
:40058000704700BF172805D8034B03EB0010417200207047012070471070004017281BD810B4C00000F1804404F5EC44D201D2B201F07F01114321709DF804201201D2B2AA
:4005C00003F00F03134363709DF8083003F00F03A3700020E07001E00120704710BC704710B500F01DFE0A4B5B78182B0BD9084A1478013B5370E30003F1804303F5F0437B
:400600001B78137000E0FF2400F00EFE204610BDCC80FF1F10F0800F0CD111F4704F0BD1C00000F1804000F5F04001808270C37000207047012070470120704710F0800FAA
:4006400008D1C00000F1804000F5F0408180C280002070470120704701BE704710B5044605E0084B186800F0D3FDA4F50044B4F5004FF6D8034B586800FB04F000F0C8FDC7
:4006800010BD00BFD480FF1F08B5034B1B7A00FB03F000F0BDFD08BDD480FF1F70B504460E46074B1D681F2802D90020FFF7D4FF04F01F04103455F8240045F8246070BD6E
:4006C00008ED00E038B504460D46072902D90020FFF7C2FF1F2C02D90020FFF7BDFF04F01F0000F1604000F564406D01EDB2057038BD00BF08B572220B4B1A7020220133A7
:400700001A700A490120FFF7C9FF07210120FFF7D9FF0622064B1A70472210331A70022251331A7008BD00BF886500403D0800002A65004010B500F073FD04460D4A137865
:4007400043F0200313700132137843F0100313700232137843F0100313700223064A1360A2F5C072136000F097F8204600F05CFD10BD00BF9865004080E200E008B5054B27
:400780001B7823B9FFF7B6FF0122024B1A70FFF7D1FF08BD6E81FF1F10B4194B99885B889BB2994205D25A1E914214BF0022012206E0CA1A40F2FF74A24214BF0022012294
:4007C000002AEAD1994207D10E4B1B7813F0040F02D10D4B187010E0B1F5006F00D300210A4B58540131064B9980064B1B7813F0020F02D00222064B1A6010BC704700BF1B
:400800006E81FF1F6B6500404B6500408C83FF1F00E200E0084B1B7833B97047305DFFF7BBFF0134A4B203E070B50D4606460024AC42F3D370BD00BF6E81FF1F15E0114BA2
:400840001B889BB2B3F5006F02D300220D4B1A800C4A13889BB20C49CB5CDBB20B490B7013889BB201339BB21380064B1B889BB2074A1288934204D0064B1B7813F0040FA7
:40088000DDD070477081FF1F8C83FF1F4B6500407281FF1F6B650040054A137843F0020313701032137843F002031370704700BFA2430040014B1B681864704708ED00E0F8
:4008C0004001C0B2014B1870704700BF00E400E00122014B1A60704700E100E00122014B1A60704780E100E010B50446FFF7F6FF2046FFF7DFFF0720FFF7E2FFFFF7E8FFE6
:4009000010BD00BF10B59DF80840012C51D1013809282ED8DFE800F0052D2D052D2D0F192D230F2B03D92548007840B222E02448007840B21EE00F2B03D92248007840B230
:4009400018E02148007840B214E00F2B03D91F48007840B20EE01E48007840B20AE00F2B03D91C48007840B204E01B48007840B200E0002001EB401101FB02F1C90B8AB258
:400980000D2B0BD8C3F10E0289B211418AB2611E124800EB810101338B7005E0631E0F4901EB83030F219970013C0C4B23F8242010BD0020FFF750FE10BD00BF180100499F
:4009C0001C010049190100491D0100491A0100491E0100491B0100491F0100497881FF1FF8B5074600F01CFC06460D4D2B7843F003032B700B4C237843F0030323700A4BE4
:400A00001F700320FFF740FE2B7803F0FC032B70237803F0FC032370304600F005FCF8BDF8460040F9460040925800400022324B1A7101285FD170B53822304B1A70042210
:400A400002331A70062201331A70002401331C7001331C703F2201331A7002331C7001331C7001331C7001250A331D70502203F527631A700A2201331A702C2201331A7069
:400A800001331C70442203331A70482201331A7001331D7002331D70112201331A70192201331A70972201331A705220FFF798FF5822134B1A7001331C70052605331E7032
:400AC000022201331A7001331C7001331C70204600F066F943F233320A4B1A602946304600F082F92946252000F002FA06491D20FFF7D4FD70BD70477881FF1F004E0040AA
:400B0000945800408C8BFF1F7D0D0000F0B583B0284D01272F70284E00247471102000F051F9102000F0D2F907211D20FFF7CAFD0422224B1A7001331C7007331C70204AB3
:400B4000137843F0180313701E4B1C7003F2F5231C7001331C700A22A3F209331A7001331C7002331C705B2205331A705E2201331A7004331C701422A3F68C231A700097E4
:400B800010234FF4004248F6F0510220FFF7BAFE2B78013B06EB83039A780B4B1A702B78013B36F82320094B1A802878FFF73EFF03B0F0BDE480FF1F7881FF1F96580040AE
:400BC000075B0040935800400E4E00400C4E004070B500F025FB06462A4B1B782A4B1A7842F001021A701A7842F010021A7010331A7842F001021A701A7842F010021A704F
:400C0000224D2B7843F002032B70214C237843F0020323701F4A137843F0030313700320FFF732FD2B7803F0FD032B70237803F0FD032370184A137843F0060313707A226A
:400C4000164B1A70164A137843F0010313701032137843F0010313700F3A137843F0010313701032137843F0010313704FF000530C4A1360A2F5C0721360304600F0D4FA7D
:400C800070BD00BFE480FF1FAA430040F8460040F9460040915800407758004082580040A143004080E200E008B5084B9B794BB9064BDB7913F0FF0F01D1FFF727FF0122F5
:400CC000024B9A71FFF784FF08BD00BF7881FF1F024A137843F0010313707047004E0040094B1B7913F0FF0F03D0074B5B79DBB203E0064B1B7803F00103012B01D0002850
:400D0000EED01846704700BF7881FF1F014E0040154B1B7803F00303012B07D8134B1888023B1B889BB243EA004013E0022B0AD10E4B1888023B1B7843EA00430C4A1078DA
:400D400043EA002006E00B4B188883B2074A108843EA0040084B1B7913F0FF0F02D00022054B5A71704700BF144E0040124E0040114E0040104E00407881FF1F704700BF36
:400D800010B5002404E02046FFF790FA0134E4B2012CF8D9FF22014B1A7010BDE580FF1F10B50446FFF7ECFF2046FFF771FA014B1C7010BDE580FF1F014B188880B27047BC
:400DC00080400040034B1A7800F0F80010431870704700BF82400040024B187800F00700704700BF8240004070B505460E46FFF7F3FF0446FFF7E0FFA84256D02B4B1B78A8
:400E000003F0010294B900B185B938B9284B1D80284A137803F0BF03137070BD254A137843F040031370224B1D8070BD22B3002321490B7001240F310C7004310B700C3940
:400E40000B7803F07F030B701A4B1B7813F0080F00D08DB9194B18800721013B1970164B1B7813F0010FFAD110490B7803F0FE030B700021104B19700C4B1B7813F0010FCF
:400E80000DD00E4B1D800EB1032200E001220A4B1A70094B1B7813F0010FFAD170BD044B1D8002490B7813430B7070BDA243004080400040824000400140004002400040C5
:400EC000014B188880B2704700410040034B1A7800F0F80010431870704700BF02410040024B187800F00700704700BF0241004070B505460E46FFF7F3FF0446FFF7E0FF68
:400F0000A84256D02B4B1B7803F0010294B900B185B938B9284B1D80284A137803F0BF03137070BD254A137843F040031370224B1D8070BD22B3002321490B700124133193
:400F40000C7004390B7008390B7803F07F030B701A4B1B7813F0080F00D08DB9194B18800721013B1970164B1B7813F0010FFAD110490B7803F0FE030B700021104B197056
:400F80000C4B1B7813F0010F0DD00E4B1D800EB1032200E001220A4B1A70094B1B7813F0010FFAD170BD044B1D8002490B7813430B7070BDA14300400041004002410040C9
:400FC000014000400240004010B500F0C7F8074C01212078FFF78EFA01216078FFF78AFA002000F0D7F800F06FF810BD8481FF1F70B505460E464FF48043020C012108460D
:4010000000F070F8094C2070A078012302463146FFF700FB45F68232A9B2A078FFF70EFBA1782078FFF7AEFA70BD00BF8481FF1F70B505460E464FF48043020C0121084680
:4010400000F06EF8094C6070E078012302463146FFF7E0FA45F68232A9B2E078FFF7EEFAE1786078FFF78EFA70BD00BF8481FF1F10B500F0B7F8022000F07EF8042000F0AC
:40108000A1F8FFF7ADFA074CA070FFF7A9FAE070054C64212046FFF7ABFF64216018FFF7C7FF10BD8481FF1F0C13000008B5054B1B7923B9FFF7DCFF0122024B1A71FFF7CB
:4010C00083FF08BD8481FF1F054A137843F0040313701032137843F004031370704700BFA2430040F0B583B016461F460B4D00242C700194009423460A4601462046FFF794
:401100004DFA3A4631462878FFF722FA02212878FFF70CFA287803B0F0BD00BFE680FF1FF0B583B016461F460B4C012525700023019300930A4601462846FFF72FFA3A4624
:4011400031462078FFF704FA02212078FFF7EEF9207803B0F0BD00BFE780FF1F054A137843F0040313701032137843F004031370704700BFA8430040054B1A7802F0FD0203
:401180001A701A7800F0020010431870704700BF28580040014B1870704700BF825B0040064B1B78C3F3810303F19243063393F82831DBB2024A1370704700BF2858004013
:4011C0000A46004008B5064B1A7802F0F3021A701A7800F00C0010431870FFF7E1FF08BD2858004008B50020074B187001331870064A137843F008031370FFF7E3FF022081
:40120000FFF7BAFF08BD00BF28580040975A00400230800803D000BF01380046FCD17047EFF3108072B6704780F31088704700BF014B1868704700BF4881FF1F0E4B70B5C2
:401240001E460E4C0025E41AA410A54204D056F8253098470135F8E700F0BEF8084B094C1E46E41AA4100025A54204D056F8253098470135F8E770BDE4130000E413000091
:40128000E4130000EC13000010B5431E0A44914204D011F8014B03F8014FF8E710BD03460244934202D003F8011BFAE77047000000000000035B0040244300404000000067
:4012C000005100401000305100404000F0510040100000000140001000140140000480180140800300400140000A004C01400002005001402000000060520040F4020048BA
:40130000060000180140FC020048800080848A8F94989EA2A8ACB2B6BCC0C6CAD0D5DADEE4E8EEF2F8FCF8F2EEE8E4DEDAD4D0CAC6C0BCB6B2ADA8A29E98948F8A84807A6E
:4013400076706B66615D58534E49443E39342F2A25211C17120D0803080D12171C21252A2F34393E44494E53585D61666B70767A80848A8F94989EA2A8ACB2B6BCC0C6CA61
:40138000D0D5DADEE4E8EEF2F8FCF8F2EEE8E4DEDAD4D0CAC6C0BCB6B2ADA8A29E98948F8A84807A76706B66615D58534E49443E39342F2A25211C17120D0803080D121784
:4013C0001C21252A2F34393E44494E53585D61666B70767A43000000F8B500BFF8BC08BC9E4670474D00000055040000F8B500BFF8BC08BC9E4670472900000010140000DE
:40140000C880FF1F88000000400A000000000000000000007F800000030000000000E02EC05D00001800000000366E0101FFFFFF000000000000000000000000000000008C
:4014400000000000000000000000000000000000D4130000000000000000000000000000000000000000000000000000000000000000000000000000000000000000000085
:4014800000000000000000000000000000000000E880FF1F0000000000000000000000000000000000000000000000000000000000000000000000000000000000000000A6
:4014C00000000000000000000000000000000000000000000000000000000000000000000000000000000000000000000000000000000000000000000000000000000000EC
:4015000000000000000000000000000000000000000000000000000000000000000000000000000000000000000000000000000000000000000000000000000000000000AB
:40154000000000000000000000000000000000000000000000000000000000000000000000000000000000000000000000000000000000000000000000000000000000006B
:40158000000000000000000000000000000000000000000000000000000000000000000000000000000000000000000000000000000000000000000000000000000000002B
:020000040003F7
:0200000480007A
:40000000015A00400365004001050140010B014001150140021701401518014038190140701A0140491B0140054001400341014004420140034301400244014001450140A1
:4000400007460140024701400A48014003490140034C01400B4D014002500140025101409701887289388B0FE040E040E602E601EC10820184049501A602AA02AE01B204A6
:40008000B401B602B701BA02BE54BF40D418D604D804D904DB04DC01DD10DF0102100380050107140C410D220E200F0210221120150116011728180519081A401B011C1026
:4000C0001D211F9020022408251227022C012D012F5432043501368037143E6A4440452047444C2454025B025C1060856D906E04762B77288080C07CC2F0C4F7CAF0CCF2BA
:40010000CEF0D0F0D220D621D80DEC10000C0271030C041405800713092C0B43141016AC1A031C091ED01F08201021712240230E25712620270628DC2A2230E031C0330F81
:40014000341F353039223A023B083F104002454049FF4A074BFF4C404D204EF04F055008580459045A045C115D015F01604061A86240632080138108820483138480853808
:400180008640880A89388A148D2092089413960C98E099109B0A9C409EA0A003A214A304A615A8E0AC20AE40B010B106B20FB318B520B6E0B701B820BA08BE11BF01C036D6
:4001C000C105C50BC6ECC80DC9FFCAFFCBFFCEF0CF44D00CD401D604D804D904DA04DB04DC11DD11DF01E6C0EA40EB020102022004200501071009080A0A0D890E0410807A
:40020000110413101514168219031A081C081D8C1E401F4020042101220123102680275429052B402F4030803710382839063B103D903E064004450848804C044E204F8060
:400240005004541056905D085E415F206740874088148A938B24911092049608978899089E109F54A140A690B001C07CC2F7C4FECA83CC28CEF7D044D230D6F0D880324026
:4002800036203C40CC30CE2094409680A6208C4094409680A62094409680A6207C02DE019C02338045028F809C02CC08D001E0029C02A502244027048240944096809F045A
:4002C000A620B704C8A0E6808620A620E6409C02B502EC0810407502884299029C02B102C408DE04E004E201E80110021C02000F1002000080800000400000001F106000D9
:40030000020800000018230000FF00001C1963E2010000E673800C007F00000103C0000004E700180C410000083900C42C1F10000F3840C08000220200000400230406000A
:40034000010C00E021FFFFFF62A0F0410C000000000002110404040411110001000000000000400200103010001010120000000000000000000000000000000080004080E9
:400380008000800000000000008B8B0000000000000303000000000025001801000000000000000000000000000000000000000000000000000000000000000000000000E3
:4003C00000000000000000000000000000000000000000000000000000000000000000000000000000000000000000000000000000000000000000000000000000000000FD
:4004000000000000000000000000000000000000000000000000000000000000000000000000000000000000000000000000000000000000000000000000000000000000BC
:40044000000000000000000000000000000000000000000000000000000000000000000000000000000000000000000000000000000000000000000000000000000000007C
:40048000000000000000000000000000000000000000000000000000000000000000000000000000000000000000000000000000000000000000000000000000000000003C
:0200000490006A
:0400000000004005B7
:0200000490105A
:04000000BC90ACAF55
:0200000490303A
:02000000145496
:0200000490402A
:4000000000000000000000000000000000000000000000000000000000000000000000000000000000000000000000000000000000000000000000000000000000000000C0
:400040000000000000000000000000000000000000000000000000000000000000000000000000000000000000000000000000000000000000000000000000000000000080
:400080000000000000000000000000000000000000000000000000000000000000000000000000000000000000000000000000000000000000000000000000000000000040
:4000C0000000000000000000000000000000000000000000000000000000000000000000000000000000000000000000000000000000000000000000000000000000000000
:0200000490501A
:0C00000000012E16106900012E1E24BD08
:00000001FF