:400000000080002011000000410500004105000008B5044B1A6803F53F5302331A6000F0AFFA00BFFA46004010B5054C237833B9044B13B10448AFF300800123237010BD42
:400040004881FF1F00000000EC1B0000084B10B51BB108490848AFF300800848036803B910BD074B002BFBD0BDE81040184700BF000000004C81FF1FEC1B0000C880FF1FF4
:40008000000000002DE9F043ADF6BC3D62B600F087FB00F0FDFD00F091FB00F007FE00F0FBFB00F0A5FC0024822512E0002000F005FE00F015FEC6B2D22000F097FB2846D2
:4000C00000F09AFBFAAB1E550134A4B2012000F0FDFBB4F57A7FE9D3FBD1A7E09DF81A14084632230AE0FAAAD25C914201D901B11146904200D2104601339BB240F2C9329E
:400100009342F0D9FAAB9B5D994200F28C8003318B4200F388808DF80030731C9BB2012705E00DF807100137BFB201339BB2FAAAD15C7A1E1DF802209142F2D205E00DF8AA
:4001400007200137BFB201339BB2FAAAD25C07F1FF381DF808108A42F1D900264FF00009344612E01DF806301C44A4B2B4FBF7F000F098FE304900F0E9FE304900F0E6FED6
:400180002F4900F097FF814601364645EAD92D49484601F08DF888B12B49484601F07EF860B1484601F098F8024628490DF5FA6001F0F8F80DF5FA6000F066FC214948461D
:4001C00001F062F890B16C1CE4B2284600F014FB484601F081F802461D490DF5FA6001F0E1F80DF5FA6000F04FFC25461649484601F068F890B16C1EE4B2284600F0FCFA27
:40020000484601F069F8024612490DF5FA6001F0C9F80DF5FA6000F037FC25460A2000F055FB002455E70136B6B200E03226B6F57A7FFFF453AF4CE70000A04000007A4438
:4002400000007F4300C0284500403545F01B0000F81B0000001C0000FEE700BFF0B40022174611E050F82760F3B226F0FF0608E001EB420511F812406D78A5550132013B90
:40028000DBB2002BF4D10137182FEBD9F0BC704708B50A46002101F07CF808BDF8B51C4B1B78DBB21B4E3478E4B21B4F3D78EDB203F00701194A11701B090132137044F039
:4002C0000303337045F003033B708022144B1A70102210331A704023124A137002321370063213700232137001220F4B1A7020230E4A1370082105321170033213700A2092
:4003000000F0FAFA3D7034704422094B1A70F8BDCF010049F8460040F94600406E5800401D51004001590040205B0040235B00407658004008B501F021F808BD38B53322D6
:400340002F4B1A8018232F4A137040F65F11023211800232137008222B492C48FFF7EAFF02222B4B1A7008224FF040231A70032103F500731970274B1B78DBB226490B7011
:40038000264B1A8041F25122023B1A80002419250CE0234B1B7803F0010343EA440404F003044FF4F07000F0B3FC013D0DB1032CEFD115B90320FFF74FFF1A4B4FF4807203
:4003C0001A8007221A70002217490A704820023108701A700222033B1A7004220A331A70124A137843F003031370013A137843F003031370013A137843F08003137038BD25
:40040000804000408240004098040048004100400043004008010049A146004022420040254200400440004006400040A243004038B572B6334A137843F0040313700024E1
:400440000CE0314D630019194A0011462A44084691882858FFF71CFF0134E4B2072CF0D900240BE02849A3001819420088180622416B006BFFF75EFF0134E4B2002CF1D02F
:4004800022494FF09040FFF7E9FE214A137843F0020313701032137843F0020313701D4C237843F040032370A2F58632513A137843F0100313700A2217491848FFF73AFF56
:4004C000082217491748FFF735FF082216491748FFF730FF164A137843F008031370154D61232B70FFF72AFF81232B700122124B1A70FFF7D3FE0E2221461048FFF71AFF82
:4005000038BD00BFE8460040081C00006400004803500140A04300407C040048C051004088040048125100409004004822510040224300400048004004000840B043004047
:4005400008B500F0EFFE03680C2B00D1FEE7FEE708B5094B1A681044084BC31A802B02DC054B186005E000F0DDFE0C2303604FF0FF32104608BD00BFCC80FF1F9885FF1F0B
:4005800008B5104E104D16E029686B68AC68002204E051F8040B43F8040B0432A242F8D1E868002203E0002143F8041B04328242F9D11035013E002EE6D100F0B9FEFFF730
:4005C00061FDFEE7010000009C1C000008B5104A104B1A60104A136843F40073136000230AE0032B03D80D4A52F8231000E00C490C4A42F8231001332F2BF2D90A4B1A78FF
:400600000A4B1A70074A0A4B1A60FFF711FF08BD0004FA050CED00E014ED00E000000000410500000080FF1FBC760040C080FF1F08ED00E008B50A280FD00C2802D00828A6
:4006400006D102E04FF4805209E04FF4807206E0002000F039F9002201E04FF480620021094B198042F2107303FB02F303F6C413064A82FB0302DB17C3EBE223044A13607E
:40068000044B198008BD00BF7E81FF1FAD8BDB687881FF1F7C81FF1F10B500F041FB04461E4A137843F0020313701032137843F0020313701A3A137843F0010313701032B8
:4006C000137843F00103137002F5AA521A32137843F0030313701822114B1A70013B1A7842F040021A701A7802F0FC021A70C822053B1A700222A3F59753123B1A70094AB3
:40070000137843F0080313700A2000F0F5F80122054B1A60204600F007FB10BDAB4300400E5900402F5B004080E200E010B504460A280DD00C2802D0082804D101E0C22285
:4007400007E0422205E0002000F0BEF8C22200E08222034B1A702046FFF76CFF10BD00BF0A59004008B5102000F0A4F80721002000F0E0F80749002000F0C8F8064A1378C9
:4007800043F0060313700820FFF7D0FF0022034B1A8008BDCD070000095900408081FF1F08B5054B1B7823B9FFF7DCFF0122024B1A70FFF771FF08BD6481FF1F024A1378DD
:4007C00043F001031370704708590040704700BF024A137843F08003137070477A650040014B1880704700BF146A0040014B1880704700BF946A0040014B1880704700BF81
:40080000546A0040014B1870704700BF8A650040014B1878704700BF6A650040014B188880B27047B46A004008B501E0FFF7F6FFFFF7EEFF10F0100FF8D108BD10B5144A71
:40084000137803F0C00343F009031370114C237843F0010323702132137843F001031370D220FFF7BDFFD220FFF7C0FF6020FFF7C3FF0020FFF7C6FF00F052FA237843F0B3
:400880001003237000F050FAFFF7CEFF10BD00BF7A6500409A65004008B5054B1B7823B9FFF7CCFF0122024B1A70FFF791FF08BD6581FF1F034B1A7800F0F8001043187082
:4008C000704700BF0241004001BE704710B5044605E0084B186800F01BFAA4F50044B4F5004FF6D8034B586800FB04F000F010FA10BD00BFD080FF1F08B5034B1B7A00FB8E
:4009000003F000F005FA08BDD080FF1F70B504460E46074B1D681F2802D90020FFF7D4FF04F01F04103455F8240045F8246070BD08ED00E038B504460D46072902D90020B9
:40094000FFF7C2FF1F2C02D90020FFF7BDFF04F01F0000F1604000F564406D01EDB2057038BD00BF08B572220C4B1A70202203F203131A700A490220FFF7C8FF07210220D0
:40098000FFF7D8FF0622074B1A70472210331A70022203F24F131A7008BD00BF88640040AD0A00002964004010B500F0B9F904460D4A137843F02003137002F203121378F7
:4009C00043F010031370033A137843F0100313700423064A1360A2F5C072136000F094F8204600F0A1F910BD9864004080E200E008B5054B1B7823B9FFF7B4FF0122024B2B
:400A00001A70FFF7D1FF08BD6681FF1F10B4194B99885B889BB2994205D25A1E914214BF0022012206E0CA1A40F2FF34A24214BF00220122002AEAD1994207D10E4B1B785F
:400A400013F0040F02D10D4B187010E0B1F5806F00D300210A4B58540131064B9980064B1B7813F0020F02D00422064B1A6010BC704700BF6681FF1F68650040486400409C
:400A80008481FF1F00E200E038B5074B1B782BB938BDFFF7BBFF0134A4B201E005460024285D0028F5D138BD6681FF1F15E0114B1B889BB2B3F5806F02D300220D4B1A80ED
:400AC0000C4A13889BB20C49CB5CDBB20B490B7013889BB201339BB21380064B1B889BB2074A1288934204D0064B1B7813F0040FDDD070476881FF1F8481FF1F486400409B
:400B00006A81FF1F68650040054A137843F0010313701032137843F001031370704700BFA243004008B50A280FD00C2802D0082806D102E04FF4805209E04FF4807206E013
:400B40000020FFF7C1FE002201E04FF480620021094B198042F2107303FB02F303F6C413064A82FB0302DB17C3EBE223044A1360044B198008BD00BF8885FF1FAD8BDB68A6
:400B80008C85FF1F8685FF1F38B500F0C9F804461E4A137843F0010313701032137843F0010313701A3A137843F0020313701032137843F00203137002F5AA5212321378DD
:400BC00043F0030313701822114B1A70013B1A7842F040021A701A7802F0FC021A70C822053B1A700225A3F597530C3B1D70094A137843F0080313700A20FFF77DFE064B85
:400C00001D60204600F090F838BD00BFAB43004006590040275B004080E200E010B504460A280DD00C2802D0082804D101E0C22207E0422205E00020FFF746FEC22200E098
:400C40008222034B1A702046FFF76CFF10BD00BF0259004008B5102000F050F807210120FFF768FE07490120FFF750FE064A137843F0060313700820FFF7D0FF0022034B94
:400C80001A8008BDF90C0000015900408485FF1F08B5054B1B7823B9FFF7DCFF0122024B1A70FFF771FF08BD6D81FF1F024A137843F00103137070470059004010B5074B99
:400CC0001B7813F0010401D10028F8D024B10120FFF712FE014B1B78204610BD01590040034B1B78034A108800B2181A40B27047A05B00408685FF1F704700BF034B1A78E2
:400D000000F0F80010431870704700BF064100400230800803D000BF01380046FCD17047EFF3108072B6704780F31088704700BF80F0004002E000BF81F0004142001FBFAF
:400D40005FEA410392EA030F7FEA226C7FEA236C6AD04FEA1262D2EB1363C1BFD218414048404140B8BF5B42192B88BF704710F0004F40F4000020F07F4018BF404211F059
:400D8000004F41F4000121F07F4118BF494292EA030F3FD0A2F1010241FA03FC10EB0C00C3F1200301FA03F100F0004302D5494260EB4000B0F5000F13D3B0F1807F06D30E
:400DC00040084FEA310102F10102FE2A51D2B1F1004F40EBC25008BF20F0010040EA03007047490040EB000010F4000FA2F10102EDD1B0FA80FCACF1080CB2EB0C0200FABE
:400E00000CF0AABF00EBC25052421843BCBFD0401843704792F0000F81F4000106BF80F400000132013BB5E74FEA41037FEA226C18BF7FEA236C21D092EA030F04D092F061
:400E4000000F08BF0846704790EA010F1CBF0020704712F07F4F04D1400028BF40F00040704712F100723CBF00F50000704700F0004343F0FE4040F4000070477FEA2262D0
:400E800016BF08467FEA23630146420206BF5FEA412390EA010F40F4800070474FF0000304E000BF10F0004348BF40425FEA000C08BF704743F0964301464FF000001CE01C
:400EC00050EA010208BF70474FF000030AE000BF50EA010208BF704711F0004302D5404261EB41015FEA010C02BF84460146002043F0B64308BFA3F18053A3F50003BCFA73
:400F00008CF2083AA3EBC25310DB01FA02FC634400FA02FCC2F12002BCF1004F20FA02F243EB020008BF20F00100704702F1200201FA02FCC2F1200250EA4C0021FA02F2B5
:400F400043EB020008BF20EADC7070474FF0FF0C1CEAD0521EBF1CEAD15392EA0C0F93EA0C0F6FD01A4480EA010C400218BF5FEA41211ED04FF0006343EA501043EA511141
:400F8000A0FB01310CF00040B1F5000F3EBF490041EAD3715B0040EA010062F17F02FD2A1DD8B3F1004F40EBC25008BF20F00100704790F0000F0CF0004C08BF49024CEA6A
:400FC000502040EA51207F3AC2BFD2F1FF0340EAC250704740F400004FF00003013A5DDC12F1190FDCBF00F000407047C2F10002410021FA02F1C2F1200200FA02FC5FEA43
:40100000310040F1000053EA4C0308BF20EADC70704792F0000F00F0004C02BF400010F4000F013AF9D040EA0C0093F0000F01F0004C02BF490011F4000F013BF9D041EAB6
:401040000C018FE70CEAD15392EA0C0F18BF93EA0C0F0AD030F0004C18BF31F0004CD8D180EA010000F00040704790F0000F17BF90F0004F084691F0000F91F0004F14D082
:4010800092EA0C0F01D142020FD193EA0C0F03D14B0218BF084608D180EA010000F0004040F0FE4040F40000704740F0FE4040F4400070474FF0FF0C1CEAD0521EBF1CEA0A
:4010C000D15392EA0C0F93EA0C0F69D0A2EB030280EA010C49024FEA402037D04FF0805343EA111143EA10130CF000408B4238BF5B0042F17D024FF4000C8B4224BF5B1A3E
:4011000040EA0C00B3EB510F24BFA3EB510340EA5C00B3EB910F24BFA3EB910340EA9C00B3EBD10F24BFA3EBD10340EADC001B0118BF5FEA1C1CE0D1FD2A3FF650AF8B4211
:4011400040EBC25008BF20F0010070470CF0004C4CEA50207F32C2BFD2F1FF0340EAC250704740F400004FF00003013A37E792F0000F00F0004C02BF400010F4000F013AE0
:40118000F9D040EA0C0093F0000F01F0004C02BF490011F4000F013BF9D041EA0C0195E70CEAD15392EA0C0F08D142027FF47DAF93EA0C0F7FF470AF084676E793EA0C0FB0
:4011C00004D14B023FF44CAF08466EE730F0004C18BF31F0004CCAD130F000427FF45CAF31F000437FF43CAF5FE700BF4FF0FF3C06E000BF4FF0010C02E000BF4FF0010CB2
:401200004DF804CD4FEA40024FEA41037FEA226C18BF7FEA236C11D001B052EA530C18BF90EA010F58BFB2EB030088BFC81738BF6FEAE17018BF40F0010070477FEA226C18
:4012400002D15FEA402C05D17FEA236CE4D15FEA412CE1D05DF8040B704700BF844608466146FFE70FB5FFF7C9FF002848BF10F1000F0FBD4DF808EDFFF7F4FF0CBF0120E1
:4012800000205DF808FB00BF4DF808EDFFF7EAFF34BF012000205DF808FB00BF4DF808EDFFF7E0FF94BF012000205DF808FB00BF4DF808EDFFF7D2FF94BF012000205DF8EF
:4012C00008FB00BF4DF808EDFFF7C8FF34BF012000205DF808FB00BF4FEA4002B2F1FE4F0FD34FF09E03B3EB12620DD94FEA002343F0004310F0004F23FA02F018BF40423C
:4013000070474FF00000704712F1610F01D1420205D110F0004008BF6FF0004070474FF000007047014B1868704700BF4081FF1F0E4B70B51E460E4C0025E41AA410A54233
:4013400004D056F8253098470135F8E700F094FC084B094C1E46E41AA4100025A54204D056F8253098470135F8E770BD841C0000841C0000841C00008C1C000010B5431E72
:401380000A44914204D011F8014B03F8014FF8E710BD03460244934202D003F8011BFAE7704700000EB400B54FF402719CB0ADF814106FF00041049107914FF6FF711DAB7B
:4013C00002900690084853F8042BADF81610006802A9019300F064F8029B00221A701CB05DF804EB03B070474081FF1F2DE9F0478E6882469E420C46914698463ED88A8980
:4014000012F4906F3AD02568096902236F1A656905EB450595FBF3F57B1C43449D4238BF1D4653050FD5294600F040FB064698B13A462169FFF7A2FFA38923F4906343F0A4
:401440008003A38113E02A4600F08EFB064670B92169504600F0DEFA0C23CAF80030A3894FF0FF3043F04003A381BDE8F08726613E44266046466561ED1BA560464528BFBB
:40148000464649463246206800F0A8FAA36800209B1BA36023681E442660BDE8F08700002DE9F04F9DB003938B8980461C060D4616460DD50B695BB9402100F0F7FA2860F5
:4014C000286118B90C23C8F80030CDE040236B610023099320238DF82930DFF89CB130238DF82A3037463C4614F8013B1BB9B7EB060910D003E0252BF9D02746F3E74B46E1
:40150000324629464046FFF771FF013000F0A780099B4B4409933B78002B00F0A08000234FF0FF3204930793059206938DF853301A930126052221784E4800F041FA671CFF
:40154000049B38B14B4A3C46801A06FA00F018430490EFE7D90644BF20228DF853201A0744BF2B228DF8532022782A2A03D0079A00210A200BE0039A111D12680391002A5D
:4015800010DA524243F00200079204900BE027463B780134303B092B03D800FB02320121F5E701B107923B782E2B1ED17B782A2B0AD1039B02371A1D1B680392002BB8BF33
:4015C0004FF0FF33059310E0002319460593781C0A2407463A780130303A092A03D804FB01210123F5E703B1059103223978224800F0E6F940B14023CBEB000003FA00F0FD
:40160000049B013718430490397806221B487E1C8DF8281000F0D4F988B1194B33B9039B073323F007030833039314E003AB00932A46144B04A94046AFF3008007E003AB57
:4016400000932A460F4B04A9404600F093F8B0F1FF3F824603D0099B5344099342E7AB895B0601D4099801E04FF0FF301DB0BDE8F08F00BF441C00004A1C00004E1C0000AB
:4016800000000000ED1300002DE9F04791461F460A698B6806469342B8BF1346C9F8003091F843200C46DDF8208012B10133C9F800302368990642BFD9F800300233C9F89C
:4016C0000030256815F0060510D104F1190A07E00123524639463046C04701301AD00135E368D9F800209B1A9D42F1DB94F843302268003318BF012392060FD5E11830201C
:4017000081F843005A1C94F845102244023382F8431003E04FF0FF30BDE8F08704F1430239463046C0470130F4D02268D9F80050E36802F00602042A08BF5D1B2269A368A3
:401740000CBF25EAE57500259342C4BF9B1AED184FF000091A344D4509D00123224639463046C0470130D5D009F10109F3E70020BDE8F0872DE9F04317460A7E85B06E2A8A
:40178000984606460C460C9B01F1430E00F0AE8011D8632A22D009D8002A00F0BB80582A40F0CA8081F84520834955E0642A1ED0692A1CD0C0E0732A00F0B08009D86F2A5A
:4017C0002ED0702A40F0B8800A6842F020020A603EE0752A24D0782A3AD0ADE01A6801F14205111D1960136884F84230A8E021681A6811F0800F02D0111D196008E011F07F
:40180000400F02F10401196002D0B2F9003000E01368002B3CDA2D225B4284F8432037E021681A6811F0800F02D0111D196007E011F0400F02F10401196001D0138800E0B5
:401840001368227E5C496F2A14BF0A2208221BE078225A4984F845202268186812F0800F00F104051D6003D1550601D5038800E00368D00744BF42F0200222601BB92268D2
:4018800022F0200222601022002084F8430001E049490A226568002DA56008DB206820F0040020602BB9002D7DD175460CE0002B79D07546B3FBF2F002FB1033CB5C05F89B
:4018C000013D03460028F5D1082A0BD12368DA0708D5236962689A42DEBF302305F8013C05F1FF35C5EB0E0323612EE008681A6810F0800F496903D0101D1860136808E035
:4019000010F0400F02F104001860136801D0198000E0196000232361754616E01A68111D1960156800216268284600F049F808B1401B6060636804E004F1420584F8422086
:4019400001232361002384F84330CDF800803B4603AA21463046FFF797FE013002D14FF0FF3026E023692A4639463046C0470130F5D023689B0710D5002504F1190907E037
:4019800001234A4639463046C0470130E7D00135E368039A9B1A9D42F2DBE068039B9842B8BF184605E00B7804F1420584F842308AE705B0BDE8F083551C0000661C0000B8
:4019C00010B5C9B202449042034605D01C7801308C42F8D1184610BD002010BD884210B501EB020301D8421E0BE09842FBD28118D21AD34204D013F8014D01F8014DF8E7C5
:401A000010BD994204D011F8014B02F8014FF8E710BD000038B50546002944D051F8043C0C1F002BB8BFE41800F0D4F81E4A1368114613B96360146030E0A3420DD92268BA
:401A4000A018834201BF18685B681218226063600C6023E0A24203D813465A68002AF9D118681918A1420BD12168014458188242196013D110685268014419605A600DE0D4
:401A800002D90C232B6009E021686018824201BF106852680918216062605C602846BDE8384000F098B838BD7481FF1F70B5CD1C25F0030508350C2D38BF0C25002D0646BC
:401AC00001DBA94202D90C23336046E000F082F8234B1C681A462146A1B10B685B1B0ED40B2B03D90B60CC18CD501EE08C420BBF63684B681360636018BF0C4615E00C46E4
:401B00004968E9E7174C23681BB9304600F052F820602946304600F04DF8431C18D0C41C24F00304A0420DD12560304600F053F804F10B00231D20F00700C31A0ED05A4232
:401B4000E25070BD211A304600F034F80130EBD10C233360304600F03EF8002070BD00BF7481FF1F7081FF1FF8B5074615460E4621B91146BDE8F840FFF798BF1AB9FFF7F3
:401B800049FF2846F8BD00F027F885420ED929463846FFF78BFF044650B131462A46FFF7EDFB31463846FFF735FF01E03046F8BD2046F8BD38B5064C0023054608462360BC
:401BC000FEF7C6FC431C02D1236803B12B6038BD9085FF1F7047704751F8040C0028BEBF091851F8043CC01804387047000000003D25640A000000002B25640A000000009B
:401C00002D25640A00000000005100401000305100404000F0510040100000000140001000140140000800400140000A004C01400002005001402000605200407404004886
:401C400006004300232D302B2000686C4C00656667454647003031323334353637383941424344454600303132333435363738396162636465660000F8B500BFF8BC08BC44
:401C80009E4670474D000000CD050000F8B500BFF8BC08BC9E46704729000000B01C0000C880FF1F800000005004000000000000000000009885FF1F0000E02EC05D000056
:401CC0001800000000366E010000000000000000000000000000000000000000000000000000000000000000421C00000000000000000000000000000000000000000000C9
:401D000000000000000000000000000000000000000000000000000000000000000000000000000000000000E080FF1F000000000000000000000000000000000000000025
:401D40000000000000000000000000000000000000000000000000000000000000000000000000000000000000000000000000000000000000000000000000000000000063
:401D80000000000000000000000000000000000000000000000000000000000000000000000000000000000000000000000000000000000000000000000000000000000023
:401DC00000000000000000000000000000000000000000000000000000000000000000000000000000000000000000000000000000000000000000000000000000000000E3
:401E000000000000000000000000000000000000000000000000000000000000000000000000000000000000000000000000000000000000000000000000000000000000A2
:020000040003F7
:0200000480007A
:4000000001520040015B00400164004003650040010701404F080140360901400115014001170140571801404D1901405F1A01404B1B0140044001400341014003420140EB
:400040000443014002460140014701400448014002490140044C01400B4D01400450014001510140094027218872880F8A0D8B38EE010002013C0342043F05080803091810
:400080000C1C0E230F04111C136115671623171818331A0C1B231C1F1E201F8020082104240C27802804297F2C012D1030103140331F340F3580362C373839023AA83B08FA
:4000C0003E013F104062410445C0460B470E481649FF4AFF4BFF4EF04F44500C56025710580459045A045B045F0166C06A406B02C002C704C9FFCA07CBFFCC40CD20CEF001
:40010000CF05D008DA04DF01E040E1A8E240E32004080505060107040D080E0912201304161A17021C401D241E0B1F042504266027402D882E022F04302033103420360568
:40014000374039013A013D013E684004471148204E084F02530857445C406D506E047580763877028D048E01C0F0C2E0C4F0CAF0CCF0CEF0D0A4D220D610EE01EE08E208B2
:40018000000204030B030D140E03110C13711510160317AC18041E0321DC232224032720280329102B402C012D092E082FD030083404351F360337E03B803E104023410639
:4001C00042054401450E460C480549FF4AFF4BFF4C624DA04EF04F41500C54015604580459045A045B045F016640670269106A306B106D106E106F12800282048DCA8F3421
:4002000093C89513976C9B359C079D139FE4A408A601A807AB80AD03AF04B00CB30FB403B7F0B822BB88BE10D804D904DF010001010104080501060109400C100D080E017D
:400240000F0810201104120C1602171418041B021E4A2001214022082550268027012A802B092C202D012F0A3020328833023608370139803D203E203F8044204528475050
:400280004C044D084F4056405C825E085F20678087409008915092059304940496409A019C209D099E029F05A020A120A240A34DA508A608C0B8C2E1C4E6CAFCCCCFCE38D3
:4002C000D070D230D6F0D88003050E0611011204260229022E013001310432043301340235023E103F104040410349FF4AFF4BFF4DA04F04501852805405580459045A0475
:400300005B045C115D115F01604062C06440654066C068C06AC06CC06EC0812882048346857C8804897C8C04920295049719980199509B269E04A202A604A801AC01B00214
:40034000B103B201B360B404B51CBE11BF01C040C103C5D0C712C832C9FFCAFFCBFFCDAFCE0FCF04D018D418D804D904DA04DB04DD01DF01E040E2C0E440E540E6C0E8C0D7
:40038000EAC0ECC0EEC0030204010604070109010E840F42100211081554164018201A081B021C081D081F0120202102222027542A20310237143A013D103E064280430AA3
:4003C000450446804D0255055601570859825A085E0267067002810183108620889489808A028C10900191549204930497409A649B019C809D019E029F44A241A301A50886
:40040000AC12B280B320C0D1C2D8C4F5CA04CC61CEE1D0C3D68BD830E402EE08300233203740CC709F40A402A7209F40A402A720A402A720AB40EE801A80C608AA40840225
:40044000A402A720E210AF20EE101F806101C601D80210407404840488408D019D01AF80C408DE04E201E40200010C0110031C03003F0000808000004000000080004080C5
:400480008000800000000000004B4B00400080000000000000001000130018011300180100000000000000000000000000000000000000000000000000000000000000007E
:4004C00000000000000000000000000000000000000000000000000000000000000000000000000000000000000000000000000000000000000000000000000000000000FC
:4005000000000000000000000000000000000000000000000000000000000000000000000000000000000000000000000000000000000000000000000000000000000000BB
:40054000000000000000000000000000000000000000000000000000000000000000000000000000000000000000000000000000000000000000000000000000000000007B
:40058000000000000000000000000000000000000000000000000000000000000000000000000000000000000000000000000000000000000000000000000000000000003B
:0200000490006A
:0400000000004005B7
:0200000490105A
:04000000BC90ACAF55
:0200000490303A
:0200000027C017
:0200000490402A
:4000000000000000000000000000000000000000000000000000000000000000000000000000000000000000000000000000000000000000000000000000000000000000C0
:400040000000000000000000000000000000000000000000000000000000000000000000000000000000000000000000000000000000000000000000000000000000000080
:400080000000000000000000000000000000000000000000000000000000000000000000000000000000000000000000000000000000000000000000000000000000000040
:4000C0000000000000000000000000000000000000000000000000000000000000000000000000000000000000000000000000000000000000000000000000000000000000
:0200000490501A
:0C00000000012E16106900012E22382984
:00000001FF